:020000020000FC
:1000000008E00EBF0FE50DBF40E053E064E00E9442
:10001000900040E055E061E10E94900040E052E134
:1000200066E00E94900041E053E064E00E9490008E
:1000300041E055E061E10E94900041E052E166E05C
:100040000E94900042E053E064E00E94900042E091
:1000500059E369E00E94900042E051E769E10E94A3
:10006000900043E05FE262E00E94900043E058E4C9
:1000700064E00E94900043E05DE06DE00E9490002B
:1000800044E053E064E00E94900044E05DE064E0FE
:100090000E94900044E05AE164E00E94900044E035
:1000A00058E764E00E94900045E053E06AE00E9457
:1000B000900045E058E764EB0E94900045E05AE567
:1000C0006FE50E94900046E053E06AE00E949000D5
:1000D00046E058E764EB0E94900046E05AE56FE581
:1000E0000E94900047E053E06AE00E94900047E0E1
:1000F00058E764EB0E94900047E05AE56FE50E94E4
:10010000900048E053E06AE00E94900048E058E721
:1001100064EB0E94900048E05AE56FE50E94900071
:100120004423A1F04A95F1F04A9501F14A9551F125
:100130004A95A1F14A95B9F14A9511F40C94EB0056
:100140004A9511F40C9403010C941F01252F362FAE
:10015000231B20F4062F152F0C943B01052F162F7F
:100160000C943B01569F002D0C943B01252F362FFC
:1001700070E07395231BE8F77A95230F072F122F52
:100180000C943B01252F362F231BF0F7230F09F08A
:1001900002C001E009F000E00C943B01752F0E94C1
:1001A0003C010C943B01252F362F231B18F4262FDE
:1001B000352F03C0252F362F732F822F7395871B62
:1001C00039F00E943C010023C1F3072F0C943B013E
:1001D00000E00C943B01252F362F231B18F4262F0B
:1001E000352F03C0252F362F722F832F7A95871B2B
:1001F00039F00E943C010023C1F3072F0C943B010E
:1002000000E00C943B01252F362F231B18F4262FDA
:10021000352F03C0252F362F732F822F7395871B01
:1002200059F00E944B010023C1F70E9455010023A1
:10023000A1F3072F0C943B0100E00C943B01252F08
:10024000362F231B18F4262F352F03C0252F362FCA
:10025000722F832F7A95871B59F00E944B01002340
:10026000C1F70E945F010023A1F3072F0C943B010B
:1002700000E00C943B010895472F872F4A954A953B
:1002800041F04395841BF0F7840F09F0F6CF00E0AE
:10029000089501E00895972F42E0941BF0F7940F22
:1002A00011F000E0089501E00895972F43E0941BBA
:1002B000F0F7940F11F000E0089501E00895972FF2
:1002C00047E0941BF0F7940F11F000E0089501E06F
:0202D00008958F
:00000001FF
